{
  "contractName": "EthStakingPool",
  "abi": [
    {
      "inputs": [],
      "payable": false,
      "stateMutability": "nonpayable",
      "type": "constructor"
    },
    {
      "anonymous": false,
      "inputs": [
        {
          "indexed": false,
          "internalType": "address",
          "name": "account",
          "type": "address"
        },
        {
          "indexed": false,
          "internalType": "uint256",
          "name": "amount",
          "type": "uint256"
        }
      ],
      "name": "Claim",
      "type": "event"
    },
    {
      "anonymous": false,
      "inputs": [
        {
          "indexed": false,
          "internalType": "bytes",
          "name": "pubkey",
          "type": "bytes"
        },
        {
          "indexed": false,
          "internalType": "bytes",
          "name": "withdrawal_credentials",
          "type": "bytes"
        },
        {
          "indexed": false,
          "internalType": "bytes",
          "name": "signature",
          "type": "bytes"
        },
        {
          "indexed": false,
          "internalType": "bytes32",
          "name": "deposit_data_root",
          "type": "bytes32"
        },
        {
          "indexed": false,
          "internalType": "uint256",
          "name": "timestamp",
          "type": "uint256"
        }
      ],
      "name": "Deposit",
      "type": "event"
    },
    {
      "anonymous": false,
      "inputs": [
        {
          "indexed": false,
          "internalType": "address",
          "name": "account",
          "type": "address"
        },
        {
          "indexed": false,
          "internalType": "uint256",
          "name": "amount",
          "type": "uint256"
        }
      ],
      "name": "EthReceived",
      "type": "event"
    },
    {
      "anonymous": false,
      "inputs": [
        {
          "indexed": false,
          "internalType": "address",
          "name": "account",
          "type": "address"
        },
        {
          "indexed": false,
          "internalType": "uint256",
          "name": "timestamp",
          "type": "uint256"
        }
      ],
      "name": "Finalize",
      "type": "event"
    },
    {
      "constant": true,
      "inputs": [],
      "name": "DEPOSIT_AMOUNT",
      "outputs": [
        {
          "internalType": "uint256",
          "name": "",
          "type": "uint256"
        }
      ],
      "payable": false,
      "stateMutability": "view",
      "type": "function"
    },
    {
      "constant": true,
      "inputs": [],
      "name": "NAME",
      "outputs": [
        {
          "internalType": "string",
          "name": "",
          "type": "string"
        }
      ],
      "payable": false,
      "stateMutability": "view",
      "type": "function"
    },
    {
      "constant": true,
      "inputs": [
        {
          "internalType": "address",
          "name": "",
          "type": "address"
        }
      ],
      "name": "balances",
      "outputs": [
        {
          "internalType": "uint256",
          "name": "",
          "type": "uint256"
        }
      ],
      "payable": false,
      "stateMutability": "view",
      "type": "function"
    },
    {
      "constant": true,
      "inputs": [],
      "name": "deadline",
      "outputs": [
        {
          "internalType": "uint256",
          "name": "",
          "type": "uint256"
        }
      ],
      "payable": false,
      "stateMutability": "view",
      "type": "function"
    },
    {
      "constant": true,
      "inputs": [],
      "name": "finalized",
      "outputs": [
        {
          "internalType": "bool",
          "name": "",
          "type": "bool"
        }
      ],
      "payable": false,
      "stateMutability": "view",
      "type": "function"
    },
    {
      "constant": true,
      "inputs": [
        {
          "internalType": "address",
          "name": "",
          "type": "address"
        }
      ],
      "name": "hasClaimed",
      "outputs": [
        {
          "internalType": "bool",
          "name": "",
          "type": "bool"
        }
      ],
      "payable": false,
      "stateMutability": "view",
      "type": "function"
    },
    {
      "constant": true,
      "inputs": [
        {
          "internalType": "bytes",
          "name": "",
          "type": "bytes"
        }
      ],
      "name": "hasDeposited",
      "outputs": [
        {
          "internalType": "bool",
          "name": "",
          "type": "bool"
        }
      ],
      "payable": false,
      "stateMutability": "view",
      "type": "function"
    },
    {
      "constant": true,
      "inputs": [],
      "name": "owner",
      "outputs": [
        {
          "internalType": "address payable",
          "name": "",
          "type": "address"
        }
      ],
      "payable": false,
      "stateMutability": "view",
      "type": "function"
    },
    {
      "constant": true,
      "inputs": [],
      "name": "weiLeftover",
      "outputs": [
        {
          "internalType": "uint256",
          "name": "",
          "type": "uint256"
        }
      ],
      "payable": false,
      "stateMutability": "view",
      "type": "function"
    },
    {
      "constant": true,
      "inputs": [],
      "name": "weiRaised",
      "outputs": [
        {
          "internalType": "uint256",
          "name": "",
          "type": "uint256"
        }
      ],
      "payable": false,
      "stateMutability": "view",
      "type": "function"
    },
    {
      "constant": false,
      "inputs": [],
      "name": "receive",
      "outputs": [],
      "payable": true,
      "stateMutability": "payable",
      "type": "function"
    },
    {
      "constant": false,
      "inputs": [],
      "name": "finalize",
      "outputs": [],
      "payable": false,
      "stateMutability": "nonpayable",
      "type": "function"
    },
    {
      "constant": false,
      "inputs": [],
      "name": "claim",
      "outputs": [],
      "payable": false,
      "stateMutability": "nonpayable",
      "type": "function"
    },
    {
      "constant": false,
      "inputs": [
        {
          "internalType": "bytes",
          "name": "pubkey",
          "type": "bytes"
        },
        {
          "internalType": "bytes",
          "name": "withdrawal_credentials",
          "type": "bytes"
        },
        {
          "internalType": "bytes",
          "name": "signature",
          "type": "bytes"
        },
        {
          "internalType": "bytes32",
          "name": "deposit_data_root",
          "type": "bytes32"
        }
      ],
      "name": "deposit",
      "outputs": [],
      "payable": false,
      "stateMutability": "nonpayable",
      "type": "function"
    }
  ],
  "bytecode": "0x60806040526f219ab540356cbb839cbe05303d7705fa6000806101000a81548173ffffffffffffffffffffffffffffffffffffffff021916908373ffffffffffffffffffffffffffffffffffffffff1602179055506801bc16d674ec8000006001556040518060400160405280601081526020017f455448205374616b696e6720506f6f6c0000000000000000000000000000000081525060029080519060200190620000ae9291906200012b565b506000600660006101000a81548160ff021916908315150217905550348015620000d757600080fd5b5033600660016101000a81548173ffffffffffffffffffffffffffffffffffffffff021916908373ffffffffffffffffffffffffffffffffffffffff16021790555062278d004201600981905550620001da565b828054600181600116156101000203166002900490600052602060002090601f016020900481019282601f106200016e57805160ff19168380011785556200019f565b828001600101855582156200019f579182015b828111156200019e57825182559160200191906001019062000181565b5b509050620001ae9190620001b2565b5090565b620001d791905b80821115620001d3576000816000905550600101620001b9565b5090565b90565b6112dc80620001ea6000396000f3fe6080604052600436106100dd5760003560e01c80638da5cb5b1161007f578063b3f05b9711610059578063b3f05b971461045f578063cdf7cc501461048e578063da8bc4a5146104b9578063ec6925a714610599576100dd565b80638da5cb5b1461036e578063a3e76c0f146103c5578063a3f4df7e146103cf576100dd565b80634042b66f116100bb5780634042b66f146102ac5780634bb278f3146102d75780634e71d92d146102ee57806373b2e80e14610305576100dd565b806322895118146100e257806327e235e31461021c57806329dcb0cf14610281575b600080fd5b3480156100ee57600080fd5b5061021a6004803603608081101561010557600080fd5b810190808035906020019064010000000081111561012257600080fd5b82018360208201111561013457600080fd5b8035906020019184600183028401116401000000008311171561015657600080fd5b90919293919293908035906020019064010000000081111561017757600080fd5b82018360208201111561018957600080fd5b803590602001918460018302840111640100000000831117156101ab57600080fd5b9091929391929390803590602001906401000000008111156101cc57600080fd5b8201836020820111156101de57600080fd5b8035906020019184600183028401116401000000008311171561020057600080fd5b9091929391929390803590602001909291905050506105c4565b005b34801561022857600080fd5b5061026b6004803603602081101561023f57600080fd5b81019080803573ffffffffffffffffffffffffffffffffffffffff169060200190929190505050610a65565b6040518082815260200191505060405180910390f35b34801561028d57600080fd5b50610296610a7d565b6040518082815260200191505060405180910390f35b3480156102b857600080fd5b506102c1610a83565b6040518082815260200191505060405180910390f35b3480156102e357600080fd5b506102ec610a89565b005b3480156102fa57600080fd5b50610303610c2d565b005b34801561031157600080fd5b506103546004803603602081101561032857600080fd5b81019080803573ffffffffffffffffffffffffffffffffffffffff169060200190929190505050610f91565b604051808215151515815260200191505060405180910390f35b34801561037a57600080fd5b50610383610fb1565b604051808273ffffffffffffffffffffffffffffffffffffffff1673ffffffffffffffffffffffffffffffffffffffff16815260200191505060405180910390f35b6103cd610fd7565b005b3480156103db57600080fd5b506103e4611193565b6040518080602001828103825283818151815260200191508051906020019080838360005b83811015610424578082015181840152602081019050610409565b50505050905090810190601f1680156104515780820380516001836020036101000a031916815260200191505b509250505060405180910390f35b34801561046b57600080fd5b50610474611231565b604051808215151515815260200191505060405180910390f35b34801561049a57600080fd5b506104a3611244565b6040518082815260200191505060405180910390f35b3480156104c557600080fd5b5061057f600480360360208110156104dc57600080fd5b81019080803590602001906401000000008111156104f957600080fd5b82018360208201111561050b57600080fd5b8035906020019184600183028401116401000000008311171561052d57600080fd5b91908080601f016020809104026020016040519081016040528093929190818152602001838380828437600081840152601f19601f82011690508083019250505050505050919291929050505061124a565b604051808215151515815260200191505060405180910390f35b3480156105a557600080fd5b506105ae611280565b6040518082815260200191505060405180910390f35b600660019054906101000a900473ffffffffffffffffffffffffffffffffffffffff1673ffffffffffffffffffffffffffffffffffffffff163373ffffffffffffffffffffffffffffffffffffffff1614610687576040517f08c379a000000000000000000000000000000000000000000000000000000000815260040180806020018281038252600d8152602001807f6d757374206265206f776e65720000000000000000000000000000000000000081525060200191505060405180910390fd5b60011515600660009054906101000a900460ff16151514610710576040517f08c379a00000000000000000000000000000000000000000000000000000000081526004018080602001828103825260118152602001807f6d7573742062652066696e616c697a656400000000000000000000000000000081525060200191505060405180910390fd5b60015447101561076b576040517f08c379a00000000000000000000000000000000000000000000000000000000081526004018080602001828103825260218152602001806112876021913960400191505060405180910390fd5b6000151560058888604051808383808284378083019250505092505050908152602001604051809103902060009054906101000a900460ff16151514610819576040517f08c379a00000000000000000000000000000000000000000000000000000000081526004018080602001828103825260118152602001807f616c7265616479206465706f736974656400000000000000000000000000000081525060200191505060405180910390fd5b6000809054906101000a900473ffffffffffffffffffffffffffffffffffffffff1673ffffffffffffffffffffffffffffffffffffffff166322895118888888888888886040518863ffffffff1660e01b81526004018080602001806020018060200185815260200184810384528b8b82818152602001925080828437600081840152601f19601f8201169050808301925050508481038352898982818152602001925080828437600081840152601f19601f8201169050808301925050508481038252878782818152602001925080828437600081840152601f19601f8201169050808301925050509a5050505050505050505050600060405180830381600087803b15801561092957600080fd5b505af115801561093d573d6000803e3d6000fd5b50505050600160058888604051808383808284378083019250505092505050908152602001604051809103902060006101000a81548160ff0219169083151502179055507f52899a5d865569c10275b353ac2a45f6a60dd9e080588be17465ed25d52d71da87878787878787426040518080602001806020018060200186815260200185815260200184810384528c8c82818152602001925080828437600081840152601f19601f82011690508083019250505084810383528a8a82818152602001925080828437600081840152601f19601f8201169050808301925050508481038252888882818152602001925080828437600081840152601f19601f8201169050808301925050509b50505050505050505050505060405180910390a150505050505050565b60036020528060005260406000206000915090505481565b60095481565b60085481565b6009544211610b00576040517f08c379a00000000000000000000000000000000000000000000000000000000081526004018080602001828103825260168152602001807f6d75737420626520616674657220646561646c696e650000000000000000000081525060200191505060405180910390fd5b60011515600660009054906101000a900460ff1615151415610b8a576040517f08c379a00000000000000000000000000000000000000000000000000000000081526004018080602001828103825260138152602001807f63616e6e6f742062652066696e616c697a65640000000000000000000000000081525060200191505060405180910390fd5b6001600660006101000a81548160ff0219169083151502179055504760088190555060015460085481610bb957fe5b066007819055507fd0e5eaaad928655181d43ca1fb4d47483e60e23e9c17f165728d9979d2d9b93a3342604051808373ffffffffffffffffffffffffffffffffffffffff1673ffffffffffffffffffffffffffffffffffffffff1681526020018281526020019250505060405180910390a1565b60011515600660009054906101000a900460ff16151514610cb6576040517f08c379a00000000000000000000000000000000000000000000000000000000081526004018080602001828103825260118152602001807f6d7573742062652066696e616c697a656400000000000000000000000000000081525060200191505060405180910390fd5b6000600360003373ffffffffffffffffffffffffffffffffffffffff1673ffffffffffffffffffffffffffffffffffffffff1681526020019081526020016000205411610d6b576040517f08c379a000000000000000000000000000000000000000000000000000000000815260040180806020018281038252601e8152602001807f62616c616e6365206d7573742062652067726561746572207468616e2030000081525060200191505060405180910390fd5b60001515600460003373ffffffffffffffffffffffffffffffffffffffff1673ffffffffffffffffffffffffffffffffffffffff16815260200190815260200160002060009054906101000a900460ff16151514610e31576040517f08c379a000000000000000000000000000000000000000000000000000000000815260040180806020018281038252600f8152602001807f616c726561647920636c61696d6564000000000000000000000000000000000081525060200191505060405180910390fd5b6001600460003373ffffffffffffffffffffffffffffffffffffffff1673ffffffffffffffffffffffffffffffffffffffff16815260200190815260200160002060006101000a81548160ff0219169083151502179055506000600854600360003373ffffffffffffffffffffffffffffffffffffffff1673ffffffffffffffffffffffffffffffffffffffff168152602001908152602001600020546007540281610ed957fe5b0490503373ffffffffffffffffffffffffffffffffffffffff166108fc829081150290604051600060405180830381858888f19350505050158015610f22573d6000803e3d6000fd5b507f47cee97cb7acd717b3c0aa1435d004cd5b3c8c57d70dbceb4e4458bbd60e39d43382604051808373ffffffffffffffffffffffffffffffffffffffff1673ffffffffffffffffffffffffffffffffffffffff1681526020018281526020019250505060405180910390a150565b60046020528060005260406000206000915054906101000a900460ff1681565b600660019054906101000a900473ffffffffffffffffffffffffffffffffffffffff1681565b60095442111561104f576040517f08c379a00000000000000000000000000000000000000000000000000000000081526004018080602001828103825260178152602001807f6d757374206265206265666f726520646561646c696e6500000000000000000081525060200191505060405180910390fd5b60011515600660009054906101000a900460ff16151514156110d9576040517f08c379a00000000000000000000000000000000000000000000000000000000081526004018080602001828103825260138152602001807f63616e6e6f742062652066696e616c697a65640000000000000000000000000081525060200191505060405180910390fd5b34600360003373ffffffffffffffffffffffffffffffffffffffff1673ffffffffffffffffffffffffffffffffffffffff168152602001908152602001600020600082825401925050819055507f85177f287940f2f05425a4029951af0e047a7f9c4eaa9a6e6917bcd869f866953334604051808373ffffffffffffffffffffffffffffffffffffffff1673ffffffffffffffffffffffffffffffffffffffff1681526020018281526020019250505060405180910390a1565b60028054600181600116156101000203166002900480601f0160208091040260200160405190810160405280929190818152602001828054600181600116156101000203166002900480156112295780601f106111fe57610100808354040283529160200191611229565b820191906000526020600020905b81548152906001019060200180831161120c57829003601f168201915b505050505081565b600660009054906101000a900460ff1681565b60075481565b6005818051602081018201805184825260208301602085012081835280955050505050506000915054906101000a900460ff1681565b6001548156fe4572726f722c206465706f73697420616d6f756e74206e6f742072656163686564a265627a7a7231582007b907fe100d9e4b2002bb76df25f93177e597d6979ab6f19074c67edfc2076464736f6c63430005110032",
  "source": "pragma solidity ^0.5.17;\r\n\r\ninterface DepositContract {\r\n    function deposit(\r\n        bytes calldata pubkey,\r\n        bytes calldata withdrawal_credentials,\r\n        bytes calldata signature,\r\n        bytes32 deposit_data_root\r\n    ) external payable;\r\n}\r\n\r\ncontract EthStakingPool {\r\n    address DEPOSIT_CONTRACT = 0x00000000219ab540356cBB839Cbe05303d7705Fa;\r\n    uint256 public DEPOSIT_AMOUNT = 32 ether;\r\n    string public NAME = \"ETH Staking Pool\";\r\n\r\n    mapping(address => uint256) public balances;\r\n    mapping(address => bool) public hasClaimed;\r\n    mapping(bytes => bool) public hasDeposited;\r\n\r\n    bool public finalized = false;\r\n    address payable public owner;\r\n    uint256 public weiLeftover;\r\n    uint256 public weiRaised;\r\n    uint256 public deadline;\r\n\r\n    event EthReceived(address account, uint256 amount);\r\n    event Finalize(address account, uint256 timestamp);\r\n    event Claim(address account, uint256 amount);\r\n\r\n    event Deposit(\r\n        bytes pubkey,\r\n        bytes withdrawal_credentials,\r\n        bytes signature,\r\n        bytes32 deposit_data_root,\r\n        uint256 timestamp\r\n    );\r\n\r\n    modifier onlyOwner() {\r\n        require(msg.sender == owner, \"must be owner\");\r\n        _;\r\n    }\r\n\r\n    modifier beforeDeadline() {\r\n        require(block.timestamp <= deadline, \"must be before deadline\");\r\n        _;\r\n    }\r\n\r\n    modifier afterDeadline() {\r\n        require(block.timestamp > deadline, \"must be after deadline\");\r\n        _;\r\n    }\r\n\r\n    modifier notFinalized() {\r\n        require(finalized != true, \"cannot be finalized\");\r\n        _;\r\n    }\r\n\r\n    modifier isFinalized() {\r\n        require(finalized == true, \"must be finalized\");\r\n        _;\r\n    }\r\n\r\n    constructor() public {\r\n        owner = msg.sender;\r\n        deadline = block.timestamp + 30 days;\r\n        // deadline = 1611705600; // 05/15/2021 @ 12:00am (UTC)\r\n    }\r\n\r\n    function receive() external payable beforeDeadline notFinalized {\r\n        balances[msg.sender] += msg.value;\r\n        emit EthReceived(msg.sender, msg.value);\r\n    }\r\n\r\n    function finalize() public afterDeadline notFinalized {\r\n        finalized = true;\r\n        weiRaised = address(this).balance;\r\n        weiLeftover = weiRaised % DEPOSIT_AMOUNT;\r\n        emit Finalize(msg.sender, now);\r\n    }\r\n\r\n    function claim() external isFinalized {\r\n        require(balances[msg.sender] > 0, \"balance must be greater than 0\");\r\n        require(hasClaimed[msg.sender] == false, \"already claimed\");\r\n        hasClaimed[msg.sender] = true;\r\n        uint256 amount = (weiLeftover * balances[msg.sender]) / weiRaised;\r\n        msg.sender.transfer(amount);\r\n        emit Claim(msg.sender, amount);\r\n    }\r\n\r\n    function deposit(\r\n        bytes calldata pubkey,\r\n        bytes calldata withdrawal_credentials,\r\n        bytes calldata signature,\r\n        bytes32 deposit_data_root\r\n    ) external onlyOwner isFinalized {\r\n        require(address(this).balance >= DEPOSIT_AMOUNT, \"Error, deposit amount not reached\");\r\n        require(hasDeposited[pubkey] == false, \"already deposited\");\r\n\r\n        DepositContract(DEPOSIT_CONTRACT).deposit(\r\n            pubkey,\r\n            withdrawal_credentials,\r\n            signature,\r\n            deposit_data_root\r\n        );\r\n\r\n        hasDeposited[pubkey] = true;\r\n\r\n        emit Deposit(\r\n            pubkey,\r\n            withdrawal_credentials,\r\n            signature,\r\n            deposit_data_root,\r\n            now\r\n        );\r\n    }\r\n}",
  "sourcePath": "/Users/victorogbebor/Desktop/Bictor_Staking_App/src/backEnd/contracts/EthStakingPool.sol",
  "compiler": {
    "name": "solc",
    "version": "0.5.17+commit.d19bba13.Emscripten.clang"
  },
  "schemaVersion": "3.3.0",
  "updatedAt": "2021-04-23T13:32:17.608Z",
  "networkType": "ethereum",
  "devdoc": {
    "methods": {}
  },
  "userdoc": {
    "methods": {}
  }
}